S00A000042332E73726563A5
S113000055C000005BC0000059C0000057C000008C
S113001055C0000053C0000051C000004FC0000094
S11300204DC000004BC0000049C0000047C00000A4
S113003045C0000043C0000041C000003FC00000B4
S11300403DC000003BC0000039C0000037C00000C4
S113005035C0000033C0000031C000002FC00000D4
S11300602DC000002BC0000029C0000027C00000E4
S113007025C0000023C0000021C000001FC00000F4
S11300801DC000001BC0000019C0000077007A00EA
S11300907D0080008300860089008C008F00920020
S11300A0950098009B009E00A100A40011241FBE8F
S11300B0CFEFD0E1DEBFCDBF4DD064C0A1CF1816C5
S11300C019066CF420E030E0E9EFF0E03197F1F745
S11300D000C000002F5F3F4F82179307A9F70895D0
S11300E080319105A0F5FC01EA5BFF4F42C08EE729
S11300F085BB089580E685BB089586EB85BB08958E
S113010082EF85BB089588EE85BB08958AED85BB93
S113011008958EED85BB089580E785BB08958EEF25
S113012085BB08958AEF85BB08958CEF85BB089540
S11301308EEC85BB08958EE185BB089586EE85BB64
S113014008958EE985BB08958CE985BB08958EEBEF
S113015085BB08958FEF84BB15BAC0E0D0E0CE0113
S1130160BFDF88EE93E0ABDF2196C131D105B9F74B
S1130170FFCFEE0FFF1F0024001C0BBE0790F6916B
S10B0180E02D0994F894FFCF6F
S9030000FC
