S00B00004237612E737265633F
S113000045C0000058C0000056C0000054C00000A5
S113001052C0000050C000004EC000004CC00000A0
S11300204AC0000048C0000046C0000044C00000B0
S113003042C0000040C000003EC000003CC00000C0
S11300403AC0000038C0000036C0000034C00000D0
S113005032C0000030C000002EC000002CC00000E0
S11300602AC0000028C0000026C0000024C00000F0
S113007022C0000020C000001EC000001CC0000000
S11300801AC0000018C0000016C0000011241FBED2
S1130090CFEFD0E1DEBFCDBF11E0A0E0B1E0E4E4FA
S11300A0F1E000E00BBF02C007900D92AC34B10741
S11300B0D9F732D045C0A4CF20914B0130E0A9013B
S11300C0440F551F440F551F240F351F99E1899F75
S11300D0200D311D1124F901E050FF4F84818093DC
S11300E04B018230A1F028F4882359F0813061F06B
S11300F00895833019F0843069F0089581E082BB5B
S1130100089582E082BB089584E082BB089588E06C
S113011082BB089512BA08958FE081BB83B3803205
S113012019F080E0C9DFFACF83B3803419F081E09D
S1130130C3DFF4CF83B3803889F382E0BDDFEECF31
S1070140F894FFCF5D
S1130144000000000101000000020200000004039A
S1130154000000010400000004000001000001008C
S11301640100000200010004030001000004000176
S11301740004000002000301000200030200020064
S10F018403030002000304000200030354
S9030000FC
