S00A000042342E73726563A4
S113000045C0000058C0000056C0000054C00000A5
S113001052C0000050C000004EC000004CC00000A0
S11300204AC0000048C0000046C0000044C00000B0
S113003042C0000040C000003EC000003CC00000C0
S11300403AC0000038C0000036C0000034C00000D0
S113005032C0000030C000002EC000002CC00000E0
S11300602AC0000028C0000026C0000024C00000F0
S113007022C0000020C000001EC000001CC0000000
S11300801AC0000018C0000016C0000011241FBED2
S1130090CFEFD0E1DEBFCDBF11E0A0E0B1E0E6ECF0
S11300A0F1E000E00BBF02C007900D92A031B10750
S11300B0D9F76CD086C0A4CF181619066CF420E0CA
S11300C030E0E9EFF0E03197F1F700C000002F5F76
S11300D03F4F82179307A9F70895AB9A81E090E008
S11300E0EBDFAB9881E090E0E7CF089515BAF5DF38
S11300F081E085BBF2CF0895CF93C82F807F85BB65
S113010085B38C6085BB81E090E0D6DF84E085BB5D
S113011020E1C29FC001112485BB85B38C6085BBDF
S113012081E090E0C9DF15BACF910895CF93DF93B2
S1130130EC018881882329F02196DEDF89918111E1
S1130140FCCFDF91CF910895CF93C82F15BAC5DFA7
S1130150C058C5BBC2DFCF910895CF938FEF84BB46
S113016015BAC0E2C5BBB9DFC5BBB7DF80E885BB44
S1130170B4DF15BAB2DF80EF85BBAFDFB7DF15BAE6
S1130180ACDF80E685BBA9DFCF91089503D081E081
S113019090E008958FEF81BBE0DF8DE091E0C6DF52
S11301A08AE090E0D1DF80ED97E086DF9FDF8DE08D
S11301B091E0BCDF82B3805882BB8AEF90E07CDFA1
S10901C0F9CFF894FFCF13
S11301C648656C6C6F20776F726C64210041000087
S9030000FC
