S00A000042342E73726563A4
S113000045C0000058C0000056C0000054C00000A5
S113001052C0000050C000004EC000004CC00000A0
S11300204AC0000048C0000046C0000044C00000B0
S113003042C0000040C000003EC000003CC00000C0
S11300403AC0000038C0000036C0000034C00000D0
S113005032C0000030C000002EC000002CC00000E0
S11300602AC0000028C0000026C0000024C00000F0
S113007022C0000020C000001EC000001CC0000000
S11300801AC0000018C0000016C0000011241FBED2
S1130090CFEFD0E1DEBFCDBF11E0A0E0B1E0E4E9F5
S11300A0F1E000E00BBF02C007900D92A630B1074B
S11300B0D9F761D06DC0A4CF181619066CF420E0EE
S11300C030E0E9EFF0E03197F1F700C000002F5F76
S11300D03F4F82179307A9F70895AB9A81E090E008
S11300E0EBDFAB9881E090E0E7CF0895CF93C82F82
S11300F0807F85BB85B38C6085BB81E090E0DCDFCD
S113010084E085BB20E1C29FC001112485BB85B377
S11301108C6085BB81E090E0CFDF15BACF91089564
S1130120CF93DF93EC018881882329F02196DEDFC9
S113013089918111FCCFDF91CF910895CF938FEFF7
S113014084BB15BAC0E2C5BBC8DFC5BBC6DF80E847
S113015085BBC3DF15BAC1DF80EF85BBBEDF15BA2F
S1130160BCDF81E085BBB9DF15BAB7DF80E685BBAC
S1130170B4DFCF9108958FEF81BBE0DF80E091E0A1
S1130180CFDF82B3805882BB8AEF90E095DFF9CF4E
S1070190F894FFCF0D
S109019442534F44000039
S9030000FC
