S00A000042342E73726563A4
S113000045C000004BC0000049C0000047C00000CC
S113001045C0000043C0000041C000003FC00000D4
S11300203DC000003BC0000039C0000037C00000E4
S113003035C0000033C0000031C000002FC00000F4
S11300402DC000002BC0000029C0000027C0000004
S113005025C0000023C0000021C000001FC0000014
S11300601DC000001BC0000019C0000017C0000024
S113007015C0000013C0000011C000000FC0000034
S11300800DC000000BC0000009C0000011241FBEF9
S1130090CFEFD0E1DEBFCDBF6AD090C0B1CF18168C
S11300A019066CF420E030E0E9EFF0E03197F1F765
S11300B000C000002F5F3F4F82179307A9F70895F0
S11300C0982F907F95BB95B39C6095BBE9EFF0E0CA
S11300D03197F1F700C0000094E095BBF0E18F9FE9
S11300E0C001112485BB85B38C6085BB89EF90E08A
S11300F00197F1F700C0000015BA0895982F907F7A
S113010095BBAB9AE9EFF0E03197F1F700C000003E
S113011094E095BBF0E18F9FC001112485BBAB9A9D
S113012089EF90E00197F1F700C0000015BA089537
S11301300F931F93CF93DF938C0180E8DFDFE801F7
S1130140005F1F4F8991BCDFC017D107D9F7DF913A
S1130150CF911F910F91089582E0D0DF88E2CEDF26
S11301608CE0CCDF86E0CADF80E8C8CF0895CF9367
S1130170DF93CDB7DEB72A970FB6F894DEBF0FBE74
S1130180CDBFEADF8AEF90E08ADF81E690E09A83D0
S11301908983FE01339688E0DF011D928A95E9F791
S11301A0CE010196C5DF80E090E02A960FB6F89460
S11301B0DEBF0FBECDBFDF91CF910895F894FFCF7E
S9030000FC
