S00A000042322E73726563A6
S113000045C000004CC0000076C00000A0C0000045
S1130010CAC0000043C0000041C000003FC000004F
S11300203DC000003BC0000039C0000037C00000E4
S113003035C0000033C0000031C000002FC00000F4
S11300402DC000002BC0000029C0000027C0000004
S113005025C0000023C0000021C000001FC0000014
S11300601DC000001BC0000019C0000017C0000024
S113007015C0000013C0000011C000000FC0000034
S11300800DC000000BC0000009C0000011241FBEF9
S1130090CFEFD0E1DEBFCDBFB2D0BEC0B1CF1F9293
S11300A00F920FB60F9211242F938F939F93CF9398
S11300B0DF9300D0CDB7DEB71A82198289819A8185
S11300C08031974254F489819A8101969A83898375
S11300D089819A8180319742B4F382E082BB0F9088
S11300E00F90DF91CF919F918F912F910F900FBE21
S11300F00F901F9018951F920F920FB60F92112414
S11301002F938F939F93CF93DF9300D0CDB7DEB718
S11301101A82198289819A818031974254F48981A3
S11301209A8101969A83898389819A818031974241
S1130130B4F384E082BB0F900F90DF91CF919F9135
S11301408F912F910F900FBE0F901F9018951F92B3
S11301500F920FB60F9211242F938F939F93CF93E7
S1130160DF9300D0CDB7DEB71A82198289819A81D4
S11301708031974254F489819A8101969A838983C4
S113018089819A8180319742B4F388E082BB0F90D1
S11301900F90DF91CF919F918F912F910F900FBE70
S11301A00F901F9018951F920F920FB60F92112463
S11301B02F938F939F93CF93DF9300D0CDB7DEB768
S11301C01A82198289819A818031974254F48981F3
S11301D09A8101969A83898389819A818031974291
S11301E0B4F381E082BB0F900F90DF91CF919F9188
S11301F08F912F910F900FBE0F901F9018958FEF36
S113020081BBEAE6F0E09081808389B78F6089BF83
S10F021081E082BB7894FFCFF894FFCF0C
S9030000FC
