S00A000042342E73726563A4
S113000045C0000060C000005EC000005CC000008D
S11300105AC0000058C0000056C0000054C0000080
S113002052C0000050C0000088C000004CC0000056
S11300304AC0000048C0000046C0000044C00000A0
S113004042C0000040C000003EC000003CC00000B0
S11300503AC0000038C0000036C0000034C00000C0
S113006032C0000030C000002EC000002CC00000D0
S11300702AC0000028C0000026C0000024C00000E0
S113008022C0000020C000001EC0000011241FBEBA
S1130090CFEFD0E1DEBFCDBF11E0A0E0B1E0E0EAF8
S11300A0F1E000E00BBF02C007900D92A230B1074F
S11300B0D9F721E0A2E0B1E001C01D92A430B2075B
S11300C0E1F75CD06BC09CCF181619066CF420E0E5
S11300D030E0E9EFF0E03197F1F700C000002F5F66
S11300E03F4F82179307A9F70895AB9A81E090E0F8
S11300F0EBDFAB9881E090E0E7CF089515BAF5DF28
S113010081E085BBF2CF0895CF938FEF84BB15BAFE
S1130110C0E2C5BBEADFC5BBE8DF80E885BBE5DF3D
S113012015BAE3DF80EF85BBE0DFE8DF15BADDDF7A
S113013080E685BBDADFCF9108951F920F920FB648
S11301400F9211248F939F93809102019091030148
S1130150019690930301809302019F918F910F90D8
S11301600FBE0F901F9018958091000183BD87B733
S1130170806887BF8FE185BD78940895C5DF8F9827
S11301808FEF8ABB87BBF0DFC2E0D1E084B58BBBC5
S1130190888188BB88EE93E097DFF8CFF894FFCF8F
S10501A00F004A
S9030000FC
